{
  "_format": "hh-sol-artifact-1",
  "contractName": "VIP_Bank",
  "sourceName": "contracts/vip_banks.sol",
  "abi": [
    {
      "inputs": [],
      "stateMutability": "nonpayable",
      "type": "constructor"
    },
    {
      "inputs": [
        {
          "internalType": "address",
          "name": "",
          "type": "address"
        }
      ],
      "name": "VIP",
      "outputs": [
        {
          "internalType": "bool",
          "name": "",
          "type": "bool"
        }
      ],
      "stateMutability": "view",
      "type": "function"
    },
    {
      "inputs": [
        {
          "internalType": "address",
          "name": "addr",
          "type": "address"
        }
      ],
      "name": "addVIP",
      "outputs": [],
      "stateMutability": "nonpayable",
      "type": "function"
    },
    {
      "inputs": [
        {
          "internalType": "address",
          "name": "",
          "type": "address"
        }
      ],
      "name": "balances",
      "outputs": [
        {
          "internalType": "uint256",
          "name": "",
          "type": "uint256"
        }
      ],
      "stateMutability": "view",
      "type": "function"
    },
    {
      "inputs": [],
      "name": "contractBalance",
      "outputs": [
        {
          "internalType": "uint256",
          "name": "",
          "type": "uint256"
        }
      ],
      "stateMutability": "view",
      "type": "function"
    },
    {
      "inputs": [],
      "name": "deposit",
      "outputs": [],
      "stateMutability": "payable",
      "type": "function"
    },
    {
      "inputs": [],
      "name": "manager",
      "outputs": [
        {
          "internalType": "address",
          "name": "",
          "type": "address"
        }
      ],
      "stateMutability": "view",
      "type": "function"
    },
    {
      "inputs": [],
      "name": "maxETH",
      "outputs": [
        {
          "internalType": "uint256",
          "name": "",
          "type": "uint256"
        }
      ],
      "stateMutability": "view",
      "type": "function"
    },
    {
      "inputs": [
        {
          "internalType": "uint256",
          "name": "_amount",
          "type": "uint256"
        }
      ],
      "name": "withdraw",
      "outputs": [],
      "stateMutability": "nonpayable",
      "type": "function"
    }
  ],
  "bytecode": "0x60806040526706f05b59d3b2000060035534801561001c57600080fd5b50336000806101000a81548173ffffffffffffffffffffffffffffffffffffffff021916908373ffffffffffffffffffffffffffffffffffffffff160217905550610c348061006c6000396000f3fe60806040526004361061007b5760003560e01c80634f7d49511161004e5780634f7d49511461013c5780638b7afe2e14610165578063d0e30db014610190578063fd518b5e1461019a5761007b565b806302814b861461008057806327e235e3146100ab5780632e1a7d4d146100e8578063481c6a7514610111575b600080fd5b34801561008c57600080fd5b506100956101d7565b6040516100a291906106d8565b60405180910390f35b3480156100b757600080fd5b506100d260048036038101906100cd9190610756565b6101dd565b6040516100df91906106d8565b60405180910390f35b3480156100f457600080fd5b5061010f600480360381019061010a91906107af565b6101f5565b005b34801561011d57600080fd5b50610126610455565b60405161013391906107eb565b60405180910390f35b34801561014857600080fd5b50610163600480360381019061015e9190610756565b610479565b005b34801561017157600080fd5b5061017a610562565b60405161018791906106d8565b60405180910390f35b61019861056a565b005b3480156101a657600080fd5b506101c160048036038101906101bc9190610756565b61069f565b6040516101ce9190610821565b60405180910390f35b60035481565b60016020528060005260406000206000915090505481565b60011515600260003373ffffffffffffffffffffffffffffffffffffffff1673ffffffffffffffffffffffffffffffffffffffff16815260200190815260200160002060009054906101000a900460ff16151514610288576040517f08c379a000000000000000000000000000000000000000000000000000000000815260040161027f90610899565b60405180910390fd5b6003544711156102cd576040517f08c379a00000000000000000000000000000000000000000000000000000000081526004016102c49061092b565b60405180910390fd5b80600160003373ffffffffffffffffffffffffffffffffffffffff1673ffffffffffffffffffffffffffffffffffffffff16815260200190815260200160002054101561034f576040517f08c379a000000000000000000000000000000000000000000000000000000000815260040161034690610997565b60405180910390fd5b80600160003373ffffffffffffffffffffffffffffffffffffffff1673ffffffffffffffffffffffffffffffffffffffff168152602001908152602001600020600082825461039e91906109e6565b9250508190555060003373ffffffffffffffffffffffffffffffffffffffff16826040516103cb90610a4b565b60006040518083038185875af1925050503d8060008114610408576040519150601f19603f3d011682016040523d82523d6000602084013e61040d565b606091505b5050905080610451576040517f08c379a000000000000000000000000000000000000000000000000000000000815260040161044890610aac565b60405180910390fd5b5050565b60008054906101000a900473ffffffffffffffffffffffffffffffffffffffff1681565b60008054906101000a900473ffffffffffffffffffffffffffffffffffffffff1673ffffffffffffffffffffffffffffffffffffffff163373ffffffffffffffffffffffffffffffffffffffff1614610507576040517f08c379a00000000000000000000000000000000000000000000000000000000081526004016104fe90610b18565b60405180910390fd5b6001600260008373ffffffffffffffffffffffffffffffffffffffff1673ffffffffffffffffffffffffffffffffffffffff16815260200190815260200160002060006101000a81548160ff02191690831515021790555050565b600047905090565b60011515600260003373ffffffffffffffffffffffffffffffffffffffff1673ffffffffffffffffffffffffffffffffffffffff16815260200190815260200160002060009054906101000a900460ff161515146105fd576040517f08c379a00000000000000000000000000000000000000000000000000000000081526004016105f490610899565b60405180910390fd5b66b1a2bc2ec50000341115610647576040517f08c379a000000000000000000000000000000000000000000000000000000000815260040161063e90610baa565b60405180910390fd5b34600160003373ffffffffffffffffffffffffffffffffffffffff1673ffffffffffffffffffffffffffffffffffffffff16815260200190815260200160002060008282546106969190610bca565b92505081905550565b60026020528060005260406000206000915054906101000a900460ff1681565b6000819050919050565b6106d2816106bf565b82525050565b60006020820190506106ed60008301846106c9565b92915050565b600080fd5b600073ffffffffffffffffffffffffffffffffffffffff82169050919050565b6000610723826106f8565b9050919050565b61073381610718565b811461073e57600080fd5b50565b6000813590506107508161072a565b92915050565b60006020828403121561076c5761076b6106f3565b5b600061077a84828501610741565b91505092915050565b61078c816106bf565b811461079757600080fd5b50565b6000813590506107a981610783565b92915050565b6000602082840312156107c5576107c46106f3565b5b60006107d38482850161079a565b91505092915050565b6107e581610718565b82525050565b600060208201905061080060008301846107dc565b92915050565b60008115159050919050565b61081b81610806565b82525050565b60006020820190506108366000830184610812565b92915050565b600082825260208201905092915050565b7f796f7520617265206e6f74206f75722056495020637573746f6d657200000000600082015250565b6000610883601c8361083c565b915061088e8261084d565b602082019050919050565b600060208201905081810360008301526108b281610876565b9050919050565b7f43616e6e6f74207769746864726177206d6f7265207468616e20302e3520455460008201527f4820706572207472616e73616374696f6e000000000000000000000000000000602082015250565b600061091560318361083c565b9150610920826108b9565b604082019050919050565b6000602082019050818103600083015261094481610908565b9050919050565b7f4e6f7420656e6f75676820657468657200000000000000000000000000000000600082015250565b600061098160108361083c565b915061098c8261094b565b602082019050919050565b600060208201905081810360008301526109b081610974565b9050919050565b7f4e487b7100000000000000000000000000000000000000000000000000000000600052601160045260246000fd5b60006109f1826106bf565b91506109fc836106bf565b9250828203905081811115610a1457610a136109b7565b5b92915050565b600081905092915050565b50565b6000610a35600083610a1a565b9150610a4082610a25565b600082019050919050565b6000610a5682610a28565b9150819050919050565b7f5769746864726177204661696c65642100000000000000000000000000000000600082015250565b6000610a9660108361083c565b9150610aa182610a60565b602082019050919050565b60006020820190508181036000830152610ac581610a89565b9050919050565b7f796f7520617265206e6f74206d616e6167657200000000000000000000000000600082015250565b6000610b0260138361083c565b9150610b0d82610acc565b602082019050919050565b60006020820190508181036000830152610b3181610af5565b9050919050565b7f43616e6e6f74206465706f736974206d6f7265207468616e20302e303520455460008201527f4820706572207472616e73616374696f6e000000000000000000000000000000602082015250565b6000610b9460318361083c565b9150610b9f82610b38565b604082019050919050565b60006020820190508181036000830152610bc381610b87565b9050919050565b6000610bd5826106bf565b9150610be0836106bf565b9250828201905080821115610bf857610bf76109b7565b5b9291505056fea2646970667358221220551abf6a6322b90641043d951ea8713c46f18fe88a1b75eea9dd9580828255a764736f6c63430008130033",
  "linkReferences": {},
  "deployedLinkReferences": {}
}